:0300230002009D3B
:10009D00C0E0C0D075D008309904C299C200309824
:1000AD000FC298AF22052274232FF8A69953220F61
:0500BD00D0D0D0E032BC
:1000E70075985075D7E675D6FF758E15E4F522F528
:0400F70021C2002200
:080107002000FDD2008F9922B7
:1000C2008B148A158916AB14AA15A916120003609F
:1000D200130516E5167002051514F9120003FF1236
:0500E200010780E2228D
:100067008E128F1375BA8090FE017402F090FFF222
:10007700740FF090FFF0747FF0A374FFF090FF000F
:10008700E4F0A3F0A37420F0A3E4F0A37480F0E4F9
:06009700F5BA75FE80229F
:10002600E4F59275910175DE0775BC801200E7D282
:0A003600ACD2AF7F017E001200671C
:10004000E4F510F51143BC400000E5BC30E5FB537E
:10005000BCDFAFBD7510008F11E511751100F510F3
:05006000AFBEEF4211EC
:0200650080D940
:030000000200FB00
:0C00FB00787FE4F6D8FD75813202002603
:10000300BB010689828A83E0225002E722BBFE02FB
:09001300E32289828A83E493222E
:00000001FF
