:0E00960055617274205465737420210D0A00A8
:03002300020026B2
:10002600C0E0C0D075D008309904C299C20030989B
:100036000FC298AF22052274232FF8A69953220FD8
:05004600D0D0D0E03233
:1000700075985075D7CC75D6FF758E15E4F522F5B9
:0400800021C2002277
:0800B0002000FDD2008F99220F
:10004B008B108A118912AB10AA11A912120003602E
:10005B00130512E5127002051114F9120003FF12B9
:05006B0000B080E2225C
:10008400120070D2ACD2AF7BFF7A00799612004B8B
:0200940080F5F5
:030000000200A457
:0C00A400787FE4F6D8FD758132020084FC
:10000300BB010689828A83E0225002E722BBFE02FB
:09001300E32289828A83E493222E
:00000001FF
