:06001C0068656C6C6F00CA
:030023000200B028
:1000B000C0E0C0D075D008309904C299C200309811
:1000C0000FC298AF22052274232FF8A69953220F4E
:0500D000D0D0D0E032A9
:1000FA0075985075D7E675D6FF758E15E4F522F515
:04010A0021C20022EC
:08011A002000FDD2008F9922A4
:1000D5008B128A138914AB12AA13A9141200036098
:1000E500130514E5147002051314F9120003FF1229
:0500F500011A80E22267
:10007A008E128F1375BA8090FE017402F090FFF20F
:10008A00740FF090FFF0747FF0A374FFF090FF00FC
:10009A00E4F0A3F0A37470F0A3E4F0A37480F0E496
:0600AA00F5BA75FE80228C
:10002600E4F59275910175DE0775BC801200FAD26F
:10003600ACD2AF7F017E0012007A7BFF7A00791C7A
:030046001200D5D0
:10004900E4F510F51143BC400000E5BC30E5FB5375
:10005900BCDFAFBD7510008F11E511751100F510EA
:0F006900AFBEEF4211AFBD12011AAFBE12011AA6
:0200780080CF37
:0300000002010EEC
:0C010E00787FE4F6D8FD758132020026EF
:10000300BB010689828A83E0225002E722BBFE02FB
:09001300E32289828A83E493222E
:00000001FF
